{
  "_format": "hh-sol-artifact-1",
  "contractName": "Keyboards",
  "sourceName": "contracts/Keyboards.sol",
  "abi": [
    {
      "inputs": [],
      "stateMutability": "nonpayable",
      "type": "constructor"
    },
    {
      "inputs": [
        {
          "internalType": "string",
          "name": "_description",
          "type": "string"
        }
      ],
      "name": "create",
      "outputs": [],
      "stateMutability": "nonpayable",
      "type": "function"
    },
    {
      "inputs": [
        {
          "internalType": "uint256",
          "name": "",
          "type": "uint256"
        }
      ],
      "name": "createdKeyboards",
      "outputs": [
        {
          "internalType": "string",
          "name": "",
          "type": "string"
        }
      ],
      "stateMutability": "view",
      "type": "function"
    },
    {
      "inputs": [],
      "name": "getKeyboards",
      "outputs": [
        {
          "internalType": "string[]",
          "name": "",
          "type": "string[]"
        }
      ],
      "stateMutability": "view",
      "type": "function"
    }
  ],
  "bytecode": "0x608060405234801561001057600080fd5b506100596040518060400160405280601c81526020017f676d2120692068617665206265656e20636f6e73747275637465642e0000000081525061005e60201b6102771760201c565b6101e1565b6100fa81604051602401610072919061015f565b6040516020818303038152906040527f41304fac000000000000000000000000000000000000000000000000000000007bffffffffffffffffffffffffffffffffffffffffffffffffffffffff19166020820180517bffffffffffffffffffffffffffffffffffffffffffffffffffffffff83818316178352505050506100fd60201b60201c565b50565b60008151905060006a636f6e736f6c652e6c6f679050602083016000808483855afa5050505050565b600061013182610181565b61013b818561018c565b935061014b81856020860161019d565b610154816101d0565b840191505092915050565b600060208201905081810360008301526101798184610126565b905092915050565b600081519050919050565b600082825260208201905092915050565b60005b838110156101bb5780820151818401526020810190506101a0565b838111156101ca576000848401525b50505050565b6000601f19601f8301169050919050565b61074a806101f06000396000f3fe608060405234801561001057600080fd5b50600436106100415760003560e01c806352810aa114610046578063778bc84714610064578063b6a46b3b14610094575b600080fd5b61004e6100b0565b60405161005b91906105a4565b60405180910390f35b61007e60048036038101906100799190610480565b610189565b60405161008b91906105c6565b60405180910390f35b6100ae60048036038101906100a9919061043b565b610235565b005b60606000805480602002602001604051908101604052809291908181526020016000905b828210156101805783829060005260206000200180546100f39061068b565b80601f016020809104026020016040519081016040528092919081815260200182805461011f9061068b565b801561016c5780601f106101415761010080835404028352916020019161016c565b820191906000526020600020905b81548152906001019060200180831161014f57829003601f168201915b5050505050815260200190600101906100d4565b50505050905090565b6000818154811061019957600080fd5b9060005260206000200160009150905080546101b49061068b565b80601f01602080910402602001604051908101604052809291908181526020018280546101e09061068b565b801561022d5780601f106102025761010080835404028352916020019161022d565b820191906000526020600020905b81548152906001019060200180831161021057829003601f168201915b505050505081565b6000828290918060018154018082558091505060019003906000526020600020016000909192909192909192909192509190610272929190610339565b505050565b61030d8160405160240161028b91906105c6565b6040516020818303038152906040527f41304fac000000000000000000000000000000000000000000000000000000007bffffffffffffffffffffffffffffffffffffffffffffffffffffffff19166020820180517bffffffffffffffffffffffffffffffffffffffffffffffffffffffff8381831617835250505050610310565b50565b60008151905060006a636f6e736f6c652e6c6f679050602083016000808483855afa5050505050565b8280546103459061068b565b90600052602060002090601f01602090048101928261036757600085556103ae565b82601f1061038057803560ff19168380011785556103ae565b828001600101855582156103ae579182015b828111156103ad578235825591602001919060010190610392565b5b5090506103bb91906103bf565b5090565b5b808211156103d85760008160009055506001016103c0565b5090565b60008083601f8401126103ee57600080fd5b8235905067ffffffffffffffff81111561040757600080fd5b60208301915083600182028301111561041f57600080fd5b9250929050565b600081359050610435816106fd565b92915050565b6000806020838503121561044e57600080fd5b600083013567ffffffffffffffff81111561046857600080fd5b610474858286016103dc565b92509250509250929050565b60006020828403121561049257600080fd5b60006104a084828501610426565b91505092915050565b60006104b58383610532565b905092915050565b60006104c8826105f8565b6104d2818561061b565b9350836020820285016104e4856105e8565b8060005b85811015610520578484038952815161050185826104a9565b945061050c8361060e565b925060208a019950506001810190506104e8565b50829750879550505050505092915050565b600061053d82610603565b610547818561062c565b9350610557818560208601610658565b610560816106ec565b840191505092915050565b600061057682610603565b610580818561063d565b9350610590818560208601610658565b610599816106ec565b840191505092915050565b600060208201905081810360008301526105be81846104bd565b905092915050565b600060208201905081810360008301526105e0818461056b565b905092915050565b6000819050602082019050919050565b600081519050919050565b600081519050919050565b6000602082019050919050565b600082825260208201905092915050565b600082825260208201905092915050565b600082825260208201905092915050565b6000819050919050565b60005b8381101561067657808201518184015260208101905061065b565b83811115610685576000848401525b50505050565b600060028204905060018216806106a357607f821691505b602082108114156106b7576106b66106bd565b5b50919050565b7f4e487b7100000000000000000000000000000000000000000000000000000000600052602260045260246000fd5b6000601f19601f8301169050919050565b6107068161064e565b811461071157600080fd5b5056fea2646970667358221220897d083c2de277018ea00ef284f1d66035428e2e2b32c4a9dcdfd209abe128d664736f6c63430008040033",
  "linkReferences": {},
  "deployedLinkReferences": {}
}